:04000000FBEF08F01A
:10100000005072657373203120666F7220526564E0
:101010002C203220666F722059656C6C6F772C2003
:101020003320666F7220477265656E202E2E2E204B
:101030000A0057656C636F6D6520746F20434F33F2
:0D1040003236204C616233000A200D0000A2
:10104E00F4EC08F0320E066E100E076E010E086EEE
:10105E00100E096E480E0A6E100E0B6E06C002F0D0
:10106E0007C003F0A5EC08F00AC002F00BC003F0B5
:10107E00A5EC08F0060E056E130E046EAE0EE82EED
:10108E00FED7042EFCD7052EFAD708C002F009C0F1
:10109E0003F0A5EC08F00AC002F00BC003F0A5ECBB
:1010AE0008F0C2EC08F0126E6BEF08F08A8058EF71
:1010BE0008F08A8258EF08F08A8458EF08F08A9078
:1010CE008A928A9458EF08F01250046E056A055001
:1010DE00000AD8B475EF08F066EF08F00450310A34
:1010EE00D8B45DEF08F0030AD8B460EF08F0010A37
:1010FE00D8B463EF08F066EF08F000EF00F0080ECA
:10110E00B86E900EAB6E240EAC6ECF0EAF6E000EA0
:10111E00B06E000E016E000E026E0AEC09F0000EAB
:10112E00016E000E026E05EC09F0000E016E000E4F
:10113E00026E0FEC09F0000E136E1200B2EF08F003
:10114E0002C0F6FF03C0F7FFF86A0800F550E9EC9D
:10115E0008F0024A032A02C0F6FF03C0F7FFF86A3E
:10116E000800F5500009D8A4BFEF08F0C1EF08F051
:10117E00A7EF08F012009EAAC7EF08F0C9EF08F01B
:10118E00C2EF08F0000E136EABA2D0EF08F0D2EF54
:10119E0008F0D4EF08F0AB98AB88AE501200000EFA
:1011AE00896E000E8A6E000E8B6E9268F80E936E2C
:1011BE00BF0E946E1F0E7E6E1F0E7F6E000E7C6E27
:1011CE00F18E1200016E9EA8EFEF08F0F1EF08F01D
:1011DE00EAEF08F001C0ADFF1200D6EC08F000EC0B
:1011EE0009F086EC08F01200136A126A000127EF6C
:1011FE0008F0620ED36E000E9B6E120001C00EF050
:10120E0002C00FF0120001C010F002C011F0120067
:0A121E0001C00CF002C00DF0120038
:020000040020DA
:08000000FFFFFFFFFFFFFFFF00
:020000040030CA
:0E000000FF081F1EFF8B85FF0FC00FE00F4093
:00000001FF
